:400000000080002011000000090800000908000008B5044B1A6803F53F5302331A6000F0FBFB00BFFA46004010B5054C237833B9044B13B10448AFF300800123237010BD5F
:400040005081FF1F0000000048380000084B10B51BB108490848AFF300800848036803B910BD074B002BFBD0BDE81040184700BF000000005481FF1F48380000C880FF1FF2
:400080000000000008B500F06BFE10F0200F2FD000F060FE612802D0732819D028E0164800F0B6FEF822154B1A700121144B187801F06CF8002001F071F9012001F062F973
:4000C000104B00221A8000225A6001221A720FE00D4800F09DFE012001F060F9012001F051F9074B187801F06DF80022054B1A7200F03EFE08BD00BF5038000084C70040CF
:400100003E0E00206C81FF1F6C38000038B54FF480431A460121022000F0CEFE0D4C207001F0BCF802460C4D28700023022101F0CFF84CF2A07244F61061287801F0DCF82C
:400140002978207801F07CF80121207801F01EF838BD00BFE01D00209881FF1F38B541F6FF734FF480420121022001F043FA154D287001F093F8144C207001F08FF80246E5
:40018000607006234FF47A61207801F0A1F8062322784FF47A61607801F09AF80B4A92B24CF2A871207801F0A7F8094A92B24CF2A871607801F0A0F82178287801F040F801
:4001C00038BD00BF3E0E00203C0E00201CC0FF1F400E002008B500231A4603E030F813100A440133B3F5FA5FF8DB104603F044F9014903F04DFA08BD0000FA452DE9F843EA
:4002000081468846002425461AE039F8140003F037F9414603F07EF802F004FD00224FF0804301F065FA06460F46284602F0D8FC32463B4602F098FB02F0F8FF0546013425
:40024000B4F5FA5FE1DB064CA4FB0534640A204602F0C6FC01F0E4FB03F008F8BDE8F883D34D6210F8B5144F3846FFF7B3FF0546124E3046FFF7AEFF044629463846FFF772
:40028000BDFF074621463046FFF7B8FF06462946384603F0FDF90A4903F046F905462146304603F0F5F90146284603F0F1F90146044803F02FF8F8BD9C81FF1FBCCFFF1F23
:4002C0000000C8410000DC42F8B55D4B1B88042B08D15B4B1B7A2BB1012001F05FF8002001F050F8564B188810F0010330D107282ED8534B00225A819C89DC8118E0032843
:4003000008D84F4A51894F4A32F811104E4A22F8131007E04A4A51894A4A32F811104B4A22F81310464A5189013151810133D381434BDB8904F5FA629342E0DB404B9A8138
:40034000013080B2188003286FD900229A81F8BD002B6AD0072868D8394B00225A819C89DC8118E0032808D8354A5189384A32F81110354A22F8131007E0314A5189344AA7
:4003800032F81110314A22F813102D4A5189013151810133D3812A4BDB8904F5FA629342E0DB072839D1264B01221A7400229A811B7A2BB1104600F0F1FF012000F0E2FF6E
:4003C000FFF750FF02F02EFC19A3D3E9002302F07DFC06460F461A4D686802F023FC16A3D3E9002302F072FC02460B463046394602F0BAFA02F01AFF84B26C82204603F0F9
:400400003BF8686000232B805F3CA4B2052C04D92B7A13B10F4800F0FBFC094B9A8902F5FA629A811A8801321A80F8BDAFF300809A9999999999E93F9A9999999999C93FC4
:400440006C81FF1F1CC0FF1F9C81FF1FBCCFFF1F400E00208838000000B583B062B600F0FFFF00F007FC00F019FC00F065FC01F07FF80121002001F089F8FFF747FEFFF7E1
:400480006DFE012000F08AFF012000F07BFF124801F0E8F8114801F00DF9114800F0B8FC104B1B7C002BFBD00E4B1B7A002BF7D00D4800F0ADFC0B4B00221A745B8A1A0A6F
:4004C0008DF804208DF80530022101A800F0B2FC064800F09DFCE3E785000000C9020000A03800006C81FF1FC03800009C380000FEE700BFF0B40022174611E050F8276008
:40050000F3B226F0FF0608E001EB420511F812406D78A5550132013BDBB2002BF4D10137172FEBD9F0BC7047124B1B78DBB203F00701114A11701B09013213708023A2F2B0
:4005400042721370022102F23F721170082102F5CA721170402209490A7004310B70BB310A7001310A70064A13704422054B1A70704700BFCF0100496E580040045A0040E8
:40058000005B00407658004008B50A46002103F052F908BD08B503F043F908BD38B500242E4B1C80502202331A70192502331D80182202331A70042229492A48FFF7EAFF67
:4005C0000222294B1A7008224FF040231A70032103F500731970254B1B78DBB224490B70244B1A8041F25122023B1A800CE0224B1B7803F0010343EA440404F003044FF4D7
:40060000F07001F065F8013D0DB1032CEFD115B90320FFF76DFF194B4FF480721A8007221A70002216490A704820023108701A700222033B1A7004220A331A70114A137891
:4006400043F003031370013A137843F001031370013A137843F08003137038BD8040004048030048004100400043004008010049A14600402242004025420040044000406B
:4006800006400040A2430040012807D8044B53F820201844017A13780B431370704700BFC4380000012808D8044B53F820201844017A137823EA010313707047C43800007C
:4006C00038B572B63B4A137843F00403137000240BE0394863001A19510001440A46098AD068FFF751FF0134E4B2072CF1D900240BE03149A3001819420088188022016CE5
:40070000C06BFFF747FF0134E4B2002CF1D02B494FF09040FFF7EEFE0A25294B1D7004212848FFF731FF042227492848FFF732FF274A137843F0020313701032137843F066
:4007400002031370234C237843F040032370A2F58632513A137843F0100313702A461E491E48FFF717FF08221D491E48FFF712FF08221D491D48FFF70DFF08221C491D487F
:40078000FFF708FF1C4A137843F0080313701B4D61232B70FFF702FF81232B700122184B1A70FFF7C1FE0E2221461648FFF7F2FE38BD00BFE8460040C43800006000004867
:4007C00083580040507600404C0300484076004003500140A043004024030048C051004030030048F251004038030048125100404003004822510040224300400048004045
:4008000004000840B043004008B502F0DDFF03680C2B00D1FEE7FEE708B5104E104D16E029686B68AC68002204E051F8040B43F8040B0432A242F8D1E868002203E000218A
:4008400043F8041B04328242F9D11035013E002EE6D102F0BFFFFFF7FFFDFEE701000000903F000008B5114A114B1A60114A136843F40073136000230AE0032B03D80E4A4B
:4008800052F8231000E00D490D4A42F8231001332F2BF2D90B4B1A780B4B1A70084A0B4B1A60FFF70DFF00F057FC08BD0004FA050CED00E014ED00E00000000009080000A6
:4008C0000080FF1FBC760040C080FF1F08ED00E010B59DF80840012C51D1013809282ED8DFE800F0052D2D052D2D0F192D230F2B03D92548007840B222E02448007840B2A2
:400900001EE00F2B03D92248007840B218E02148007840B214E00F2B03D91F48007840B20EE01E48007840B20AE00F2B03D91C48007840B204E01B48007840B200E00020EC
:4009400001EB401101FB02F1C90B8AB20D2B0BD8C3F10E0289B211418AB2611E124800EB810101338B7005E0631E0F4901EB83030F219970013C0C4B23F8242010BD0020D5
:4009800000F0C8FC10BD00BF180100491C010049190100491D0100491A0100491E0100491B0100491F0100498081FF1FF8B5074600F096FE06460D4D2B7843F003032B7011
:4009C0000B4C237843F0030323700A4B1F70032000F0A2FC2B7803F0FC032B70237803F0FC032370304600F07FFEF8BDF8460040F946004092580040F8B500222F4B1A71C1
:400A000001285AD138222E4B1A70032202331A70052601331E70002401331C7001331C703F2201331A7002331C7001331C7001331C7002270A331F70502203F527631A70BD
:400A40000A23204A13702C2101321170013214704421033211704821013211700125013215700232147001321470013213704322154B1A705220FFF799FF5822134B1A70B8
:400A800001331C7005331E7001331F7001331C7001331C70204600F03DFA43F233320C4B1A602946304600F059FA2946BA2000F0D9FA08491D2000F039FCF8BD8081FF1FBA
:400AC000004E0040855800409158004094580040E41D0020AD0C0000F0B583B0284D01272F70284E00247471102000F025FA102000F0A6FA07211D2000F02CFC0422224B7A
:400B00001A7001331C7007331C70204A137843F0180313701E4B1C7003F2F5231C7001331C700A22A3F209331A7001331C7002331C705B2205331A705E2201331A700433D5
:400B40001C701422A3F68C231A70009710234FF4004248F6F0510220FFF7BAFE2B78013B06EB83039A780B4B1A702B78013B36F82320094B1A802878FFF73EFF03B0F0BD8A
:400B8000CC80FF1F8081FF1F96580040075B0040935800400E4E00400C4E004070B500F09FFD06462A4B1B782A4B1A7842F001021A701A7842F010021A7010331A7842F049
:400BC00001021A701A7842F010021A70224D2B7843F002032B70214C237843F0020323701F4A137843F003031370032000F094FB2B7803F0FD032B70237803F0FD032370AC
:400C0000184A137843F0060313707A22164B1A70164A137843F0010313701032137843F0010313700F3A137843F0010313701032137843F0010313704FF000530C4A1360E5
:400C4000A2F5C0721360304600F04EFD70BD00BFCC80FF1FAA430040F8460040F9460040915800407758004082580040A143004080E200E008B5084B9B794BB9064BDB7982
:400C800013F0FF0F01D1FFF727FF0122024B9A71FFF784FF08BD00BF8081FF1F024A137843F0010313707047004E0040704700BF08B571220B4B1A70202201331A700A49CF
:400CC000002000F033FB0721002000F043FB0622064B1A70472210331A70022251331A7008BD00BF8A6500405D0E00002865004010B500F0F5FC04460D4A137843F02003C2
:400D000013700132137843F010031370023A137843F0100313700123064A1360A2F5C072136000F00BFA204600F0DEFC10BD00BF9A65004080E200E008B5054B1B7823B948
:400D4000FFF7B6FF0122024B1A70FFF7D1FF08BD8C81FF1F014B1878704700BF4A650040024B187800F07F00704700BF6B65004008B500F0B5FC064B1A7842F001021A7005
:400D80001A7802F0FE021A7000F0AEFC08BD00BF9A65004010B4194B99885B889BB2994205D25A1E914214BF0022012206E0CA1A40F69F74A24214BF00220122002AEAD146
:400DC000994207D10E4B1B7813F0040F02D10D4B187010E0B1F57A6F00D300210A4B58540131064B9980064B1B7813F0020F02D00122064B1A6010BC704700BF8C81FF1F56
:400E00006965004049650040E81D002000E200E038B5074B1B782BB938BDFFF7BBFF0134A4B201E005460024285D0028F5D138BD8C81FF1F084B1B7833B97047305DFFF7FA
:400E4000A9FF0134A4B203E070B50D4606460024AC42F3D370BD00BF8C81FF1F15E0114B1B889BB2B3F57A6F02D300220D4B1A800C4A13889BB20C49CB5CDBB20B490B70D8
:400E800013889BB201339BB21380064B1B889BB2074A1288934204D0064B1B7813F0040FDDD070478E81FF1FE81D0020496500409081FF1F69650040F0B583B016461F46ED
:400EC0000B4C0A2525700023019300930A460146284600F0C1F93A463146207800F096F90221207800F080F9207803B0F0BD00BFCD80FF1F10B5002404E02046FFF7D2FB94
:400F00000134E4B2012CF8D9FF22014B1A7010BDCE80FF1F10B50446FFF7ECFF2046FFF7B3FB014B1C7010BDCE80FF1F014B188880B2704780400040034B1A7800F0F80010
:400F400010431870704700BF82400040024B187800F00700704700BF8240004070B505460E46FFF7F3FF0446FFF7E0FFA84256D02B4B1B7803F0010294B900B185B938B9CB
:400F8000284B1D80284A137803F0BF03137070BD254A137843F040031370224B1D8070BD22B3002321490B7001240F310C7004310B700C390B7803F07F030B701A4B1B7877
:400FC00013F0080F00D08DB9194B18800721013B1970164B1B7813F0010FFAD110490B7803F0FE030B700021104B19700C4B1B7813F0010F0DD00E4B1D800EB1032200E022
:4010000001220A4B1A70094B1B7813F0010FFAD170BD044B1D8002490B7813430B7070BDA243004080400040824000400140004002400040014B188880B270470041004084
:40104000034B1A7800F0F80010431870704700BF02410040024B187800F00700704700BF0241004070B505460E46FFF7F3FF0446FFF7E0FFA84256D02B4B1B7803F001022D
:4010800094B900B185B938B9284B1D80284A137803F0BF03137070BD254A137843F040031370224B1D8070BD22B3002321490B70012413310C7004390B7008390B7803F036
:4010C0007F030B701A4B1B7813F0080F00D08DB9194B18800721013B1970164B1B7813F0010FFAD110490B7803F0FE030B700021104B19700C4B1B7813F0010F0DD00E4B8D
:401100001D800EB1032200E001220A4B1A70094B1B7813F0010FFAD170BD044B1D8002490B7813430B7070BDA143004000410040024100400140004002400040054A13789D
:4011400043F0020313701032137843F002031370704700BFA24300400B4A7F2313708021517007E0DA0002F1804202F5F042013BDBB21370002BF5D1DB0003F1804303F54F
:40118000F04300221A707047D080FF1F172815D831B103010A495A5C42F020025A5405E0030107495A5C02F0DF025A540001044A835C43F0010383540020704701207047B3
:4011C0001070004017280BD80001064BC25C02F0FE02C254C25C02F0DF02C25400207047012070471070004017280BD80001064A835C03F0F103490001F00E01194381546C
:4012000000207047012070471070004041F6FF73994201D14FF4005141F6FF739A4201D14FF40052172808D8C00000F1804000F5EC408180C280002070470120704700BF07
:40124000172805D8034B03EB0010417200207047012070471070004017281BD810B4C00000F1804404F5EC44D201D2B201F07F01114321709DF804201201D2B203F00F034E
:40128000134363709DF8083003F00F03A3700020E07001E00120704710BC704710B500F01FFA0A4B5B78182B0BD9084A1478013B5370E30003F1804303F5F0431B7813709F
:4012C00000E0FF2400F010FA204610BDD080FF1F10F0800F0CD111F4704F0BD1C00000F1804000F5F04001808270C37000207047012070470120704710F0800F08D1C00059
:4013000000F1804000F5F0408180C280002070470120704701BE704708B5034B1B7A00FB03F000F0D5F908BDD880FF1F70B504460E46074B1D681F2802D90020FFF7EAFF2D
:4013400004F01F04103455F8240045F8246070BD08ED00E038B504460D46072902D90020FFF7D8FF1F2C02D90020FFF7D3FF04F01F0000F1604000F564406D01EDB205708F
:4013800038BD00BF044A137803F0FB03800000F0040018431070704720510040044A137803F0FD03400000F0020018431070704720510040084A137843F0010313701032DE
:4013C000137843F00103137002F5A5521E32137843F0800313707047A9430040044A137803F0FC0300F0030018431070704700BF01580040072809D8054B1A7802F08F02A6
:401400001A701A780001C0B210431870704700BF02580040032809D8054B1A7802F0F3021A701A788000C0B210431870704700BF0258004010B50222084B1A700C2201333C
:401440001A70012401331C700720FFF7D3FF0320FFF7E0FF2046FFF7C1FF10BD0058004008B5054B1B7823B90122034B1A70FFF7E1FFFFF79FFF08BD9381FF1FF8B5244AA2
:40148000137843F01003137002F50342DA32137803F0FE0313703F2308321370043213701C4D4FF48074224629461B4802F0B8F922462946194802F0B3F922461849194839
:4014C00002F0AEF94FF4007422461749174802F0A7F922461649174802F0A2F9164C174E04F14007354620686168A268E3680FC510342E46BC42F5D10020114B187000F0C8
:4015000069F8012000F06EF8F8220E4B1A70F8BDA64300404C3E000000C4004000C500400C39000000C600404C3C000000C000404C3A000000C200400C3A000000C70040BD
:401540008CC7004084C70040084A137843F0100313701032137843F01003137002F50342CA32137843F0010313707047A643004008B5054B1B7823B9FFF780FF0122024B53
:401580001A70FFF7E1FF08BD9481FF1F68B9104B1A7802F0CC021A701A780A431A701A780901C9B211431970704701280ED1084B1A7802F033021A7018788A00D2B20243E6
:4015C0001A701A788901C9B211431970704700BFB0C7004000F01F00014B1870704700BF98C7004000F00F00014B1870704700BF9CC70040F0B583B016461F460B4C0825BF
:4016000025700023019300932B460A4601462846FFF722FE3A4631462078FFF7F7FD02212078FFF7E1FD207803B0F0BDE880FF1F014B1B689864704708ED00E04001C0B2AF
:40164000014B1870704700BF02E400E00422014B1A60704700E100E00422014B1A60704780E100E010B50446FFF7F6FF2046FFF7DFFF0720FFF7E2FFFFF7E8FF10BD00BF77
:40168000014B1B685864704708ED00E04001C0B2014B1870704700BF01E400E00222014B1A60704700E100E00222014B1A60704780E100E010B50446FFF7F6FF2046FFF7B7
:4016C000DFFF0720FFF7E2FFFFF7E8FF10BD00BF0230800803D000BF01380046FCD17047EFF3108072B6704780F31088704700BF2DE9F04F8DB006460F4614461D4600F0A4
:40170000EBF9DFF81093CDE9000199F90080B8F1FF3F46D022462B462046294601F070FD834600283DD132463B463046394601F067FD8246002874D13046394600220023C8
:4017400001F02CFD002833D0002200232046294601F024FD8346B8B1A94A012300200021CDF828A0CDE90467CDE90645CDE9080103920293B8F1000F6CD0A24B002210467D
:4017800019460DB0BDE8F08F2046294600F0CEFF38B1002200232046294601F009FD00286AD1DDE90023104619460DB0BDE8F08FDDE9000100F0BAFF804600287DD0DDE90A
:4017C00000014FF0000A4FF0000B52465B4601F0E5FC0028E5D03046394600F0A7FF0028DFD02046294600F0A1FF0028D9D099F90030834804210022022BCDE90467CDE9FD
:401800000645CDE908AB039002910A9204D002A800F092FF002847D101F0D6FF2223036042E0002200232046294601F0B7FC0028B7D0744B724800220121B8F1020FCDF8BA
:4018400028B0CDE90467CDE90645CDE9082303900291A8D002A800F06FFF00287ED00A9B43B301F0B1FFDDE908230A990160104619460DB0BDE8F08F614999F9003001221B
:40188000CDF828B0CDE90467CDE9064503910292002B68D05C490020022BCDE9080166D101F092FF212303600A9B1BB101F08CFF0A9B0360DDE9082375E73046394600F0A6
:4018C00035FF00283FF47BAF2046294600F02EFF00283FF474AFDDE900231046194601F08FFC00286FD1464B99F90080039303230A90CDE90467CDE906450293B8F1000FD5
:401900003BD1DFF814B14FF0604A0022002330463946CDE908AB01F04BFC00283FF477AF00223A4B2046294601F0D0F904460D4600F00AFF02460B462046294601F02EFC65
:4019400000283DD1324B4FF06042CDE9082399F90080B8F1020F7FF45AAF5DE701F034FF212303607BE700230024CDE9083402A800F0E2FE002897D192E7DFF8A0B04FF017
:40198000000A0022002330463946CDE908AB01F00FFC0028DDD000221C4B2046294601F095F904460D4600F0CFFE02460B462046294601F0F3FB18B9134B0022CDE90823F3
:4019C00099F90080C5E70E4A99F900900123CDF82880CDE90467CDE9064503920293B9F1000FC0D0002200231046194601F098FAB9F1020FCDE908013FF452AFB7E700BF01
:401A00004C3F00000000F03F0000F0FF0000E03FFFFFEFC7E980FF1FFFFFEF470000F07F2DE9F04F8BB004460D4600F0B7FD284B064693F900A00F46BAF1FF3F12D02246BC
:401A40002B462046294601F0DBFB834650B94FF000084FF000092046294642464B4601F0A7FB20B9304639460BB0BDE8F08F194A0123CDF820B0CDE90445CDE9024501921F
:401A80000093BAF1000F15D042464B464046494601F046FABAF1020FCDE906010CD101F093FE21230360089B63B9DDE906010BB0BDE8F08FCDE90689684600F03DFE002865
:401AC000F1D1ECE701F080FE089B0360EDE700BFE980FF1F503F00002DE9F04F23F0004858EA020993B03CD0714C21F00046A64283460D460CDD06F1404606F5801656EA98
:401B00000B0038D183466B49584613B0BDE8F08F9A4696462BD0A045EDDC654CA04578D0002D0F468146CDE9002376DB0024BEF1000F27D15E4B984500F08B805D4B9845F9
:401B400052D0BAF1804F00F0C9835B4B9A4519D1002D17DB4846394613B0BDE8F04F00F01DBDCB465846534913B0BDE8F08F0028C1D1B045D1DD514813B0BDE8F04F00F0C2
:401B8000DDBD00244846394600F0CCFDBBF1000F1CD0ED0F013D54EA050370D0484B984540F3948003F10473984540F30D84454B9E4270DDBAF1000F70DD3BA3D3E90023F6
:401BC0001046194601F082F883469DE726B1394B25F040429A42DCD1BAF1000FC0F2B783002D08DB83468FE7BAF1000FC0F25E84CB46394688E706F1404606F5801656EA6D
:401C0000040300F08384012CECD101F1004183467AE7BEF1000F83D06DE72B4B98452CDCA3F15473984581DD4FEA2853A3F2FF33142B40F35384C3F134032EFA03F202FA41
:401C400003F39E457FF472AF02F00102C2F102046DE706F1404303F5801353EA0B0300F03A83184B9E4240F36783BAF1000F15DBDDE900349B46214646E7022457E74A468B
:401C800048463B46394600F06DFE02460B4601F047F9834638E7BAF1000F8EDB4FF0000B594631E7AFF300809C7500883CE4377E0000F07F0000F03F0000E03FBC38000024
:401CC0000000E041FFFFEF3FFFFF3F43B6F5801F4FF0000205DAD04B00F0F8FF0E466FF03402DFF844E33315C6F31306A3F2FF3346F07F57764503EB020A47F4401740F35D
:401D0000C983C64B00229E4240F304840023CDE90823CDE90C23C24B0022CDE906230AF1010AA7F5801700263946DDE90623CDE90A0100F017FEDDE9062380468946DDE9B5
:401D40000A0100F011FE02460B460020B44901F0E7F80A4601461346CDE90E1202464946404600F0B3FF8C4683467B1043F0005303F5002399190020CDE904BC06460F465E
:401D80004FF0000B6146584632463B46CDE910BCCDE9020100F09AFF02460B464046494600F0E0FDDDE90623804689463046394600F0D8FD02460B46DDE90A0100F0D2FDF5
:401DC000DDE9022300F082FF02460B464046494600F0C8FDDDE90E2300F078FFDDE90478CDE906013A4643463846414600F06EFF77A3D3E9002306460F4600F067FF76A353
:401E0000D3E9002300F0B0FD32463B4600F05EFF73A3D3E9002300F0A7FD32463B4600F055FF71A3D3E9002300F09EFD32463B4600F04CFF6EA3D3E9002300F095FD32467E
:401E40003B4600F043FF6CA3D3E9002300F08CFD3246804689463B463046394600F036FF02460B464046494600F030FFDDE9022306460F46DDE9040100F076FDDDE906232A
:401E800000F024FF32463B4600F06EFDDDE902678046894632463B463046394600F016FF0022604BCDE90A0100F05EFD42464B4600F05AFDDDE910BC0F46DDE902015A467B
:401EC0003B46CDE90EBC5E4600F000FF0022CDE90201544B3046394600F044FDDDE90A2300F040FD02460B464046494600F03AFDDDE9042300F0EAFE324680468946DDE921
:401F000006013B4600F0E2FE02460B464046494600F02AFD8046894602460B46DDE9020100F022FDDDE90EBC35A3D3E900235846CDE906BC5E460F4600F0C8FEDDE9022387
:401F4000CDE904013046394600F00CFD02460B464046494600F006FD2BA3D3E9002300F0B5FE2BA3D3E90023804689463046394600F0ACFE02460B464046494600F0F4FC68
:401F8000DDE90C2300F0F0FC80465046894600F037FE06460F46DDE9040142464B4600F0E3FCDDE9082300F0DFFC32463B4600F0DBFCDDE906BC324658463B46DA468B4620
:401FC00000F0D0FCDDE9082330E000BFAFF30080EF4E454A287ECA3F65DBC9934A86CD3F01411DA96074D13F4D268F515555D53FFFAB6FDBB66DDB3F033333333333E33FFE
:40200000000000E009C7EE3FFD033ADC09C7EE3FF5015B14E02F3EBE0000404379B60B000000F03F000008408E98030000F09AFCDDE9042300F096FC02460B464046494640
:4020400000F090FC80468946DDE90012013C54EA050314BFD64CD74C0023CDE904340B461446CDE9023400230293DDE9024508462B461146224600F075FC52465B4600F067
:4020800025FEDDE9002306460F464046494600F01DFE02460B463046394600F065FC06460F4622462B4650465946CDE9006700F00DFE0B460246804689463046394600F09A
:4020C00053FCBD4B064699420D460C4640F30E8101F13F4303F5E003034340F0F081A0A3D3E90023DDE9000100F03EFC424682468B464B463046294600F034FC02460B4662
:402100005046594601F072F8002840F0D8812F463B154FF48012A3F2FE3342FA03F32344C3F30A52A54EA2F2FF321641C3F3130B0020C2F1140523EA06014BF4801B02464E
:402140000B46002C4BFA05FB40464946B8BFCBF1000B00F007FC02460B4680468946DDE9000100F001FC4FEA0B5A00247EA3D3E9002320460D4600F0A9FD424606460F463B
:402180004B462046294600F0EDFB02460B46DDE9000100F0E7FB76A3D3E9002300F096FD75A3D3E90023804689462046294600F08DFD02460B464046494600F0D5FB804625
:4021C000894602460B463046394600F0CDFB32463B4604460D4600F0C5FB02460B464046494600F0BFFB2246804689462B462046294600F06BFD62A3D3E9002306460F460C
:4022000000F064FD60A3D3E9002300F0ABFB32463B4600F05BFD5EA3D3E9002300F0A4FB32463B4600F052FD5BA3D3E9002300F099FB32463B4600F049FD59A3D3E9002382
:4022400000F092FB32463B4600F040FD02460B462046294600F086FB06460F4602460B462046294600F032FD0022CDE900014FF080433046394600F075FB02460B46DDE91F
:40228000000100F04DFE424606460F464B462046294600F01BFD42464B4600F065FB02460B463046394600F05DFB22462B4600F059FB02460B4600203D4900F053FB8A44A4
:4022C000BAF5801FC0F237815146DDE9042300F0FDFC834618E4F346354915E44A4648463B46394600F0F2FC83460DE4344B21F000479F4240F30181324B0B4403430CD132
:4023000042464B4600F02EFB02460B46DDE9000100F058FF00283FF4FBAE23A3D3E90023DDE9040100F0D2FC1FA3D3E9002300F0CDFC8346FFF7E8BBBAF1000FBFF6AEAC0D
:40234000DDE900349B4604F10041FFF7DDBB02460B460020164900F0E3FD41E4AFF30080FE822B654715973C00000000432EE63FEF39FAFE422EE63F396CA80C615C20BE11
:40238000D0A4BE726937663EF16BD2C541BDBB3E2CDE25AF6A56113F93BDBE166CC1663F3E5555555555C53F59F3F8C21F6EA5010000F03F0000F0BFFFFF8F40FFFF0F008B
:4023C000FFCB904000346F3F6F4B9E427FF763AC6E4B9E423FF7EEAB00226C4B00F0C2FA5BA3D3E9002306460F4600F06FFC5AA3D3E90023804689463046394600F066FCC4
:40240000002282468B46624B3046394600F05EFC02460B4652A1D1E9000100F0A3FA32463B4600F053FC02460B460020594900F099FA3246CDE902013B463046394600F074
:4024400045FC02460B46DDE9020100F03FFC46A3D3E9002300F03AFC02460B465046594600F080FA02460B4606460F464046494600F07AFA42464B46002082468B4600F0F3
:4024800071FA02460B463046394600F06BFA80468946D9E500220023CDE90823CDE90C233A4B00220026CDE906233DE44A463B460020364900F034FD8346FFF725BB2CA364
:4024C000D3E90023DDE9040100F000FC28A3D3E9002300F0FBFB8346FFF716BBBEF1000F7FF44FABC3F1140348FA03F202FA03F3984524D07446FFF721BB264B9F423FF722
:4025000007AEDDE902349A469B462EE602460B46FFF7B9BB204B4FF48026CDE9062316A3D3E90023CDE9082315A3D3E90023CDE90C23FFF7F9BB5A4600F096F9C5E602F084
:402540000102C2F10204FFF7F9BA00BFAFF30080000000604715F73F44DF5DF80BAE543E555555555555D53FFE822B654715F73F9C7500883CE4377E0000004003B8E23F22
:4025800006D0CF43EBFD4C3EFEFFEF3F0000F03F0000D03F0000E03F0000F83F2DE9F0415F4E0C46B6460E407645054600F0988000290B46024674DD5FEA215E7FD0AEF29A
:4025C000FF3EC3F313031EF0010F43F4801363D100273E4603EBD2710B444FEA6E0E520016204FF4001174189C424FEAD2754FEA420202DC1B1B66180F44013805EB43033F
:402600004FEA5101EFD1844620244FF0004109E020D003EBD275013C4FEA51012B444FEA420220D09E4201EB0C05F1DA002D05EB010C09DBB0469542A3EB060300D9013BE0
:402640004646521B0844E4E7BCF1000FF2DB06F10108F0E7954217D8002D05EB010C49DB98460023ECE7134310D140087B1003F17F5303F50013FA0703EB0E57394648BF4D
:4026800040F00040BDE8F0813346C2E7411C35D000F001031844E8E75B0003EBD273520096E721F000460643ECD079BB8E46D30AAEF1150E5205002BF9D0DD0221D4002151
:4026C00000E001465B00DC0201F10100F9D5C0F1200422FA04F42343C1EB0E0E82406EE702460B4600F0F2FA2A46234600F03CF9BDE8F081BCF1000FA9DAB1E7013720468D
:40270000B4E720244FF0FF310020E2E702460B4600F028F902460B4600F002FCB2E700BF0000F07F21F00041704700BF41F0004101F58010C00F70470020704700200149E3
:40274000704700BF0000F87FF0B5C1F30A5EAEF2FF36132E83B002460B460C464FEAD17507462EDC002E49DB3D49314103EA010010432BD049080B4053EA02070CD04FF41A
:402780008023132E24EA010143FA06F444EA01040CBF4FF000470027324B214603EBC505D5E90045384622462B4600F0DDF8CDE90001DDE9000122462B4600F0D3F803B0C3
:4027C000F0BD332E06DDB6F5806F45D01046194603B0F0BDAEF2134E4FF0FF3121FA0EF10842F3D049080842D6D04FF0804320EA010143FA0EFE4EEA0107CDE721F00041AF
:4028000001431946E4D0C3F3130343EA000CCCF1000343EA0C0C134B640C4FEA1C3C0CF4002C03EBC5036404D3E900674CEA040132463B4600F098F8CDE90001DDE9000139
:4028400032463B4600F08EF8024621F0004141EAC57310461946BBE700F086F8B8E700BFFFFF0F00583F0000F8B5C1F30A5604460D460B46174606BB21F00043034325D0C9
:4028800000222F4B00F022FA2E4A044697420D460B462ADBC1F30A56363E40F2FE723E44964228DC002E12DD23F0FF4323F4E00343EA065520462946F8BD40F2FF729642AB
:4028C000EBD102460B4600F04FF8F8BDF8BD16F1350F1DDA4CF250339F420CDC14A1D1E9000122462B4600F031F811A3D3E9002300F0ECF9F8BD22460FA1D1E900012B4653
:4029000000F024F80CA3D3E9002300F0DFF9F8BD23F0FF4323F4E003363643EA0655204629460022084B00F0D1F9F8BDAFF3008059F3F8C21F6EA5019C7500883CE4377EBB
:4029400000005043B03CFFFF0000903C03F0004321F0004242EA0301704700BF81F0004102E000BF83F0004330B54FEA41044FEA430594EA050F08BF90EA020F1FBF54EAF2
:40298000000C55EA020C7FEA645C7FEA655C00F0E2804FEA5454D4EB5555B8BF6D420CDD2C4480EA020281EA030382EA000083EA010180EA020281EA0303362D88BF30BD20
:4029C00011F0004F4FEA01314FF4801C4CEA113102D0404261EB410113F0004F4FEA03334CEA133302D0524263EB430394EA050F00F0A780A4F10104D5F1200E0DDB02FA91
:402A00000EFC22FA05F2801841F1000103FA0EF2801843FA05F359410EE0A5F120050EF1200E012A03FA0EFC28BF4CF0020C43FA05F3C01851EBE37101F0004507D54FF023
:402A4000000EDCF1000C7EEB00006EEB0101B1F5801F1BD3B1F5001F0CD349085FEA30004FEA3C0C04F101044FEA445212F5800F80F09A80BCF1004F08BF5FEA500C50F1F7
:402A8000000041EB045141EA050130BD5FEA4C0C404141EB010111F4801FA4F10104E9D191F0000F04BF01460020B1FA81F308BF2033A3F10B03B3F120020CDA0C3208DDCB
:402AC00002F1140CC2F10C0201FA0CF021FA02F10CE002F11402D8BFC2F1200C01FA02F120FA0CFCDCBF41EA0C019040E41AA2BF01EB0451294330BD6FEA04041F3C1CDA34
:402B00000C340EDC04F11404C4F1200220FA04F001FA02F340EA030021FA04F345EA030130BDC4F10C04C4F1200220FA02F001FA04F340EA0300294630BD21FA04F0294689
:402B400030BD94F0000F83F4801306BF81F480110134013D4EE77FEA645C18BF7FEA655C29D094EA050F08BF90EA020F05D054EA000C04BF1946104630BD91EA030F1EBF63
:402B80000021002030BD5FEA545C05D14000494128BF41F0004130BD14F580043CBF01F5801130BD01F0004545F0FE4141F470014FF0000030BD7FEA645C1ABF19461046D9
:402BC0007FEA655C1CBF0B46024650EA013406BF52EA033591EA030F41F4002130BD00BF90F0000F04BF0021704730B54FF4806404F132044FF000054FF0000150E700BF25
:402C000090F0000F04BF0021704730B54FF4806404F1320410F0004548BF40424FF000013EE700BF42004FEAE2014FEA31014FEA02701FBF12F07F4393F07F4F81F06051B8
:402C4000704792F0000F14BF93F07F4F704730B54FF4607401F0004521F0004120E700BF50EA010208BF704730B54FF000050AE050EA010208BF704730B511F0004502D55C
:402C8000404261EB41014FF4806404F132045FEA915C3FF4DCAE4FF003025FEADC0C18BF03325FEADC0C18BF033202EBDC02C2F1200300FA03FC20FA02F001FA03FE40EA35
:402CC0000E0021FA02F11444C1E600BF70B54FF0FF0C4CF4E06C1CEA11541DBF1CEA135594EA0C0F95EA0C0F00F0DEF82C4481EA030621EA4C5123EA4C5350EA013518BFD2
:402D000052EA033541F4801143F4801338D0A0FB02CE4FF00005E1FB02E506F00042E0FB03E54FF00006E1FB03569CF0000F18BF4EF0010EA4F1FF04B6F5007F64F5407412
:402D400004D25FEA4E0E6D4146EB060642EAC62141EA55514FEAC52040EA5E504FEACE2EB4F1FD0C88BFBCF5E06F1ED8BEF1004F08BF5FEA500E50F1000041EB045170BD98
:402D800006F0004646EA010140EA020081EA0301B4EB5C04C2BFD4EB0C0541EA045170BD41F480114FF0000E013C00F3AB8014F1360FDEBF002001F0004170BDC4F1000480
:402DC000203C35DA0C341BDC04F11404C4F1200500FA05F320FA04F001FA05F240EA020001F0004221F0004110EBD37021FA04F642EB06015EEA430E08BF20EAD37070BD46
:402E0000C4F10C04C4F1200500FA04F320FA05F001FA04F240EA020001F0004110EBD37041F100015EEA430E08BF20EAD37070BDC4F1200500FA05F24EEA020E20FA04F335
:402E400001FA05F243EA020321FA04F001F0004121FA04F220EA020000EBD3705EEA430E08BF20EAD37070BD94F0000F0FD101F00046400041EB010111F4801F08BF013C08
:402E8000F7D041EA060195F0000F18BF704703F00046520043EB030313F4801F08BF013DF7D043EA0603704794EA0C0F0CEA135518BF95EA0C0F0CD050EA410618BF52EA01
:402EC0004306D1D181EA030101F000414FF0000070BD50EA410606BF1046194652EA430619D094EA0C0F02D150EA013613D195EA0C0F05D152EA03361CBF104619460AD160
:402F000081EA030101F0004141F0FE4141F470014FF0000070BD41F0FE4141F4780170BD70B54FF0FF0C4CF4E06C1CEA11541DBF1CEA135594EA0C0F95EA0C0F00F0A7F8B1
:402F4000A4EB050481EA030E52EA03354FEA013100F088804FEA03334FF0805545EA131343EA12634FEA022245EA111545EA10654FEA00260EF000419D4208BF964244F145
:402F8000FD0404F5407402D25B084FEA3202B61A65EB03055B084FEA32024FF480104FF4002CB6EB020E75EB030E22BFB61A754640EA0C005B084FEA3202B6EB020E75EBE0
:402FC000030E22BFB61A754640EA5C005B084FEA3202B6EB020E75EB030E22BFB61A754640EA9C005B084FEA3202B6EB020E75EB030E22BFB61A754640EADC0055EA060EF3
:4030000018D04FEA051545EA16754FEA06164FEAC30343EA52734FEAC2025FEA1C1CC0D111F4801F0BD141EA00014FF000004FF0004CB6E711F4801F04BF01430020B4F1C3
:40304000FD0C88BFBCF5E06F3FF6AFAEB5EB030C04BFB6EB020C5FEA500C50F1000041EB045170BD0EF0004E4EEA113114EB5C04C2BFD4EB0C0541EA045170BD41F48011D0
:403080004FF0000E013C90E645EA060E8DE60CEA135594EA0C0F08BF95EA0C0F3FF43BAF94EA0C0F0AD150EA01347FF434AF95EA0C0F7FF425AF104619462CE795EA0C0F69
:4030C00006D152EA03353FF4FDAE1046194622E750EA410618BF52EA43067FF4C5AE50EA41047FF40DAF52EA43057FF4EBAE12E74FF0FF3C06E000BF4FF0010C02E000BFE3
:403100004FF0010C4DF804CD4FEA410C7FEA6C5C4FEA430C18BF7FEA6C5C1BD001B050EA410C0CBF52EA430C91EA030F02BF90EA020F0020704710F1000F91EA030F58BF09
:40314000994208BF90422CBFD8176FEAE37040F0010070474FEA410C7FEA6C5C02D150EA013C07D14FEA430C7FEA6C5CD6D152EA033CD3D05DF8040B704700BF844610461C
:4031800062468C461946634600E000BF01B5FFF7B7FF002848BF10F1000F01BD4DF808EDFFF7F4FF0CBF012000205DF808FB00BF4DF808EDFFF7EAFF34BF012000205DF8A7
:4031C00008FB00BF4DF808EDFFF7E0FF94BF012000205DF808FB00BF4DF808EDFFF7CEFF94BF012000205DF808FB00BF4DF808EDFFF7C4FF34BF012000205DF808FB00BF6D
:403200004FEA410C7FEA6C5C02D150EA013C0AD14FEA430C7FEA6C5C02D152EA033C02D14FF0000070474FF0010070474A0011D212F5001211D20DD56FF47873B3EB625240
:403240000ED44FEAC12343F0004343EA505323FA02F070474FF00000704750EA013002D14FF0FF3070474FF0000070474FEA4102B2F1E04324BFB3F5001CDCF1FE5C0DD9FE
:4032800001F0004C4FEAC0024CEA5070B2F1004F40EB830008BF20F00100704711F0804F21D113F13872BCBF01F00040704741F480114FEA5252C2F11802C2F1200C10FA85
:4032C0000CF320FA02F018BF40F001004FEAC1234FEAD32303FA0CFC40EA0C0023FA02F34FEA4303CCE77FEA625307D150EA01331EBF4FF0FE4040F44000704701F00040D6
:4033000040F0FE4040F40000704700BF80F0004002E000BF81F0004142001FBF5FEA410392EA030F7FEA226C7FEA236C6AD04FEA1262D2EB1363C1BFD2184140484041403A
:40334000B8BF5B42192B88BF704710F0004F40F4000020F07F4018BF404211F0004F41F4000121F07F4118BF494292EA030F3FD0A2F1010241FA03FC10EB0C00C3F1200348
:4033800001FA03F100F0004302D5494260EB4000B0F5000F13D3B0F1807F06D340084FEA310102F10102FE2A51D2B1F1004F40EBC25008BF20F0010040EA030070474900C4
:4033C00040EB000010F4000FA2F10102EDD1B0FA80FCACF1080CB2EB0C0200FA0CF0AABF00EBC25052421843BCBFD0401843704792F0000F81F4000106BF80F4000001325E
:40340000013BB5E74FEA41037FEA226C18BF7FEA236C21D092EA030F04D092F0000F08BF0846704790EA010F1CBF0020704712F07F4F04D1400028BF40F00040704712F18F
:4034400000723CBF00F50000704700F0004343F0FE4040F4000070477FEA226216BF08467FEA23630146420206BF5FEA412390EA010F40F4800070474FF0000304E000BFCE
:4034800010F0004348BF40425FEA000C08BF704743F0964301464FF000001CE050EA010208BF70474FF000030AE000BF50EA010208BF704711F0004302D5404261EB410153
:4034C0005FEA010C02BF84460146002043F0B64308BFA3F18053A3F50003BCFA8CF2083AA3EBC25310DB01FA02FC634400FA02FCC2F12002BCF1004F20FA02F243EB0200E4
:4035000008BF20F00100704702F1200201FA02FCC2F1200250EA4C0021FA02F243EB020008BF20EADC7070474FF0FF0C1CEAD0521EBF1CEAD15392EA0C0F93EA0C0F6FD099
:403540001A4480EA010C400218BF5FEA41211ED04FF0006343EA501043EA5111A0FB01310CF00040B1F5000F3EBF490041EAD3715B0040EA010062F17F02FD2A1DD8B3F179
:40358000004F40EBC25008BF20F00100704790F0000F0CF0004C08BF49024CEA502040EA51207F3AC2BFD2F1FF0340EAC250704740F400004FF00003013A5DDC12F1190FBF
:4035C000DCBF00F000407047C2F10002410021FA02F1C2F1200200FA02FC5FEA310040F1000053EA4C0308BF20EADC70704792F0000F00F0004C02BF400010F4000F013A51
:40360000F9D040EA0C0093F0000F01F0004C02BF490011F4000F013BF9D041EA0C018FE70CEAD15392EA0C0F18BF93EA0C0F0AD030F0004C18BF31F0004CD8D180EA01002D
:4036400000F00040704790F0000F17BF90F0004F084691F0000F91F0004F14D092EA0C0F01D142020FD193EA0C0F03D14B0218BF084608D180EA010000F0004040F0FE4050
:4036800040F40000704740F0FE4040F4400070474FF0FF0C1CEAD0521EBF1CEAD15392EA0C0F93EA0C0F69D0A2EB030280EA010C49024FEA402037D04FF0805343EA111150
:4036C00043EA10130CF000408B4238BF5B0042F17D024FF4000C8B4224BF5B1A40EA0C00B3EB510F24BFA3EB510340EA5C00B3EB910F24BFA3EB910340EA9C00B3EBD10FF3
:4037000024BFA3EBD10340EADC001B0118BF5FEA1C1CE0D1FD2A3FF650AF8B4240EBC25008BF20F0010070470CF0004C4CEA50207F32C2BFD2F1FF0340EAC250704740F419
:4037400000004FF00003013A37E792F0000F00F0004C02BF400010F4000F013AF9D040EA0C0093F0000F01F0004C02BF490011F4000F013BF9D041EA0C0195E70CEAD153D3
:4037800092EA0C0F08D142027FF47DAF93EA0C0F7FF470AF084676E793EA0C0F04D14B023FF44CAF08466EE730F0004C18BF31F0004CCAD130F000427FF45CAF31F00043C7
:4037C0007FF43CAF5FE700BF014B1868704700BF4C81FF1F0E4B70B51E460E4C0025E41AA410A54204D056F8253098470135F8E700F0BCFB084B094C1E46E41AA41000254A
:40380000A54204D056F8253098470135F8E770BD783F0000783F0000783F0000803F000010B5431E0A44914204D011F8014B03F8014FF8E710BD03460244934202D003F88D
:40384000011BFAE77047000000000000000000005374617274696E67204164717569736974696F6E2E2E2E0D0A00000053746F7070696E67204164717569736974696F6EFF
:403880002E2E2E0D0A0000004572726F7220696E20746865206D6561737572650D0A00005541525420436F6D756E69636174696F6E3A204F4E204C494E450D0A0000000041
:4038C000523A2000035B00402443004040000000005100401000305100404000000001400010001401400006801A0140800100400140000A004C0140000200500140200022
:40390000001A0140A40200488000000021F805014210864063F811010489A42001F805010000000000000000000000000000000000000000000000000000000000000000CA
:403940000000000000000000000000000000000000000000000000000000000000000000000000000000000000000000000000000000000000000000000000000000000047
:403980000000000000000000000000000000000000000000000000000000000000000000000000000000000000000000000000000000000000000000000000000000000007
:4039C00000000000000000000000000000000000000000000000000000000000000000000000000000000000000000000000000000000000000000000000000000000000C7
:403A00000000000000000000000000000E07000000000000020100007E3F0000FF3F0000000000000000000000000000000000000000000000000000000000000000000073
:403A4000000000000000000000000000300200006004000030020000C4BF7B003D1DC400AE0800005D110000AE080000644F7A00058EC500972300002D470000972300001B
:403A8000BE527E008889C1000000000000000000000000000000000000000000000000000000000000000000000000000000000000000000000000000000000000000000A6
:403AC00000000000000000000000000000000000000000000000000000000000000000000000000000000000000000000000000000000000000000000000000000000000C6
:403B00000000000000000000000000000000000000000000000000000000000000000000000000000000000000000000000000000000000000000000000000000000000085
:403B40000000000000000000000000000000000000000000000000000000000000000000000000000000000000000000000000000000000000000000000000000000000045
:403B80000000000000000000000000000000000000000000000000000000000000000000000000000000000000000000000000000000000000000000000000000000000005
:403BC00000000000000000000000000000000000000000000000000000000000000000000000000000000000000000000000000000000000000000000000000000000000C5
:403C00000000000000000000000000000000000000000000000000000000000000000000000000000000000000000000000000000000000000000000000000000000000084
:403C4000000000000000000000080000000000000000000000000000000000000000000000000000000000000000000000000000000000000000000000000000000000003C
:403C80000000000000000000000000000000000000000000000000000000000000000000000000000000000000000000000000000000000000000000000000000000000004
:403CC00000000000000000000000000000000000000000000000000000000000000000000000000000000000000000000000000000000000000000000000000000000000C4
:403D00000000000000000000000000000000000000000000000000000000000000000000000000000000000000000000000000000000000000000000000000000000000083
:403D40000000000000000000000000000000000000000000000000000000000000000000000000000000000000000000000000000000000000000000000000000000000043
:403D80000000000000000000000000000000000000000000000000000000000000000000000000000000000000000000000000000000000000000000000000000000000003
:403DC00000000000000000000000000000000000000000000000000000000000000000000000000000000000000000000000000000000000000000000000000000000000C3
:403E00000000000000000000000000000000000000000000000000000000000000000000000000000000000000000000000000000000000000000000000000000000000082
:403E400000000000000000000008000020130025611780260100802620138026C20C8026E00E8026A40A802663171006860880266806806D6606802F2002106F00808026E7
:403E80002002806F008080262002806F2002806F211A40FE00008026022210660080106E0182802600000000000000000000000000000000000000000000000000000000C9
:403EC00000000000000000000000000000000000000000000000000000000000000000000000000000000000000000000000000000000000000000000000000000000000C2
:403F00000000000000000000000000000000000000000000000000000000000000000000000000000000000000000000000000000000000000000000000000000000000081
:403F4000000000000000000000000000706F77007371727400000000000000000000304300000000000030C343000000F8B500BFF8BC08BC9E4670474D000000650800003F
:403F8000F8B500BFF8BC08BC9E46704729000000A03F0000C880FF1F8800000038AC00000000000001FFFF007F800000000500000000E02EC05D00001800000000366E01BD
:403FC000FF0100000000000000000000000000000000000000000000000000000000000000000000683F00000000000000000000000000000000000000000000000000001A
:40400000000000000000000000000000000000000000000000000000000000000000000000000000EC80FF1F000000000000000000000000000000000000000000000000F6
:404040000000000000000000000000000000000000000000000000000000000000000000000000000000000000000000000000000000000000000000000000000000000040
:404080000000000000000000000000000000000000000000000000000000000000000000000000000000000000000000000000000000000000000000000000000000000000
:4040C00000000000000000000000000000000000000000000000000000000000000000000000000000000000000000000000000000000000000000000000000000000000C0
:40410000000000000000000000000000000000000000000000000000000000000000000000000000000000000000000000000000000000000000000000000000000000007F
:020000040003F7
:0200000480007A
:40000000025200400365004001050140010B0140011501400117014063180140381901400C1A0140421B0140044001400541014004420140034301400244014001450140C5
:4000400004460140014701400748014003490140024C0140084D0140025001400151014060806180890F8A718B38E002E002E602E6010308040C0671081409800B130C10E9
:400080000EAC140916D0170C192C1B431E032010224025712620270E28DC2A222D712F063130330F34E035C0361F39A23A203B083F414001454049FF4A074BFF4C404D203B
:4000C0004EF04F055008580459045A045C115D015F01604061A862406320804084138604880389018A148C138E0C970299019A089D01A020A615A80AAA14B010B102B22096
:40010000B301B440B60FBA80BE15C053C102C5ECC6B0C80BC9FFCAFFCBFFCEF0CF44D00CD401D604D804D904DA04DB04DC11DD11DF01E6C0EA40EB02002201A003200424C2
:40014000058009100E2210801210132015011620172019841A441C061E021F202102220825102610276A2D802F2032403318372839103D013F204220432047404890498198
:400180004D0150105630571059255A40608080808604C0EFC2A2C47ECA50CC6ECEA4D016D208D60FD801E00293019B01B301BB80BF04D418D604D904DB04DC10DD10DF018A
:4001C000000401800208034009420A1010801314180419A11A302101222223222548270129A02A023218334135023620388039023B144004418043014508462049024A0A94
:40020000504059015F0266A0674069106A806B107080720273148180834887408A808B20951096809F10A102A208A708B702C00FC20DC40ECA0DCCAFCE0FD00DD20CD681E5
:40024000D8B0E601324033083680CC7012809680A680A708C41087019680A708E04096809F01A7087C10DE019410450885089410D00194102701824096809F01A708C82014
:40028000E6808708A708E640878094101102778081019B80B410C408DE04E80810021C02003F000081000001E7041800000CC6003900C401003E0100B9004222000C003262
:4002C000FF20000010080000080000001832000C000E0030200E580198101F200020A800000001042604050001E00C0006FFFFFF62A0F0410C00000000000213040404046D
:4003000011110001000000000000400200103010001010120000000000000000000000000000000040000080C0008000000000000002020002000000000B0B0000000000BA
:400340000007070001008000BB0018010008000000000000000000000000000000000000000000000000000000000000000000000000000000000000000000000000000012
:40038000000000000000000000000000000000000000000000000000000000000000000000000000000000000000000000000000000000000000000000000000000000003D
:4003C00000000000000000000000000000000000000000000000000000000000000000000000000000000000000000000000000000000000000000000000000000000000FD
:4004000000000000000000000000000000000000000000000000000000000000000000000000000000000000000000000000000000000000000000000000000000000000BC
:40044000000000000000000000000000000000000000000000000000000000000000000000000000000000000000000000000000000000000000000000000000000000007C
:0200000490006A
:0400000000004005B7
:0200000490105A
:04000000BC90ACAF55
:0200000490303A
:020000005ECDD3
:0200000490402A
:4000000000000000000000000000000000000000000000000000000000000000000000000000000000000000000000000000000000000000000000000000000000000000C0
:400040000000000000000000000000000000000000000000000000000000000000000000000000000000000000000000000000000000000000000000000000000000000080
:400080000000000000000000000000000000000000000000000000000000000000000000000000000000000000000000000000000000000000000000000000000000000040
:4000C0000000000000000000000000000000000000000000000000000000000000000000000000000000000000000000000000000000000000000000000000000000000000
:0200000490501A
:0C00000000012E16106900012E2D6F3635
:00000001FF